:020000040800F2
:1000000000000220E50F0008750F0008830F0008AC
:10001000890F00088F0F0008950F000800000000EE
:100020000000000000000000000000009B0F00081E
:10003000A90F000800000000B70F0008C50F000856
:10004000351000083510000835100008351000087C
:10005000351000083510000835100008351000086C
:10006000351000083510000835100008351000085C
:10007000351000083510000835100008351000084C
:10008000351000083510000835100008351000083C
:10009000351000083510000835100008351000082C
:1000A000351000083510000835100008351000081C
:1000B000351000083510000835100008351000080C
:1000C00035100008351000083510000835100008FC
:1000D00035100008351000083510000835100008EC
:1000E0003510000835100008000000003510000829
:1000F00035100008351000083510000835100008CC
:1001000035100008D10F0008351000083510000820
:1001100035100008351000083510000835100008AB
:10012000351000083510000835100008351000089B
:10013000351000083510000835100008351000088B
:100140003510000835100008000000000000000015
:10015000351000083510000835100008351000086B
:10016000351000083510000835100008351000085B
:100170003510000835100008351000080000000098
:10018000351000083510000835100008351000083B
:10019000351000083510000835100008351000082B
:1001A000351000083510000835100008351000081B
:1001B000351000083510000835100008351000080B
:1001C00035100008351000083510000835100008FB
:1001D00035100008351000083510000835100008EB
:1001E00035100008351000083510000835100008DB
:1001F00035100008351000083510000835100008CB
:1002000035100008351000083510000835100008BA
:1002100035100008351000083510000835100008AA
:1002200035100008351000083510000800000000E7
:10023000351000083510000835100008351000088A
:10024000351000083510000835100008351000087A
:10025000351000083510000835100008351000086A
:10026000351000083510000835100008351000085A
:10027000351000083510000835100008351000084A
:100280003510000835100008351000080000000087
:080290003510000835100008CC
:1002980010B5054C237833B9044B13B10448AFF3B8
:1002A80000800123237010BD10040020000000000E
:1002B800E0C9000808B5034B1BB103490348AFF375
:1002C800008008BD0000000014040020E0C90008F8
:1002D80053B94AB9002908BF00281CBF4FF0FF31A5
:1002E8004FF0FF3000F072B9ADF1080C6DE904CEA3
:1002F80000F006F8DDF804E0DDE9022304B07047F9
:100308002DE9F047089E04468846002B4BD18A42C7
:10031800154667D9B2FA82F24AB1C2F1200701FA4A
:1003280002F320FA07F7954047EA030894404FEA9A
:10033800154E230CB8FBFEF71FFA85FC0EFB178839
:1003480043EA084307FB0CF1994209D9EB1807F176
:10035800FF3080F01B81994240F21881023F2B4404
:100368005B1AA4B2B3FBFEF00EFB103344EA03445D
:1003780000FB0CFCA44509D92C1900F1FF3380F0CF
:100388000781A44540F2048102382C4440EA074022
:10039800A4EB0C0400271EB1D4400023C6E9004397
:1003A8003946BDE8F0878B4209D9002E00F0EB8072
:1003B8000027C6E9000138463946BDE8F087B3FA98
:1003C80083F7002F47D18B4202D3824200F2FA8092
:1003D800841A61EB030301209846002EE0D0C6E999
:1003E8000048DDE702B9FFDEB2FA82F2002A40F0E7
:1003F8008F80491B4FEA154E1FFA85F80127B1FB7C
:10040800FEFC230C0EFB1C1143EA014308FB0CF114
:10041800994207D9EB180CF1FF3002D2994200F249
:10042800CD808446591AA3B2B1FBFEF00EFB10141E
:1004380043EA044408FB00F8A04507D92C1900F149
:10044800FF3302D2A04500F2B6801846A4EB080498
:1004580040EA0C409FE7C7F1200CBB4022FA0CFE93
:100468004EEA030E01FA07F420FA0CF521FA0CF310
:100478004FEA1E482543B3FBF8F92C0C08FB193347
:100488001FFA8EFA44EA034309FB0AF49C4202FA73
:1004980007F200FA07F10BD91EEB030309F1FF304D
:1004A80080F087809C4240F28480A9F1020973445D
:1004B8001B1BADB2B3FBF8F008FB103345EA03444D
:1004C80000FB0AFAA24508D91EEB040400F1FF3329
:1004D8006BD2A24569D90238744440EA0940A0FBAE
:1004E8000289A4EB0A044C45C2464B4654D351D06A
:1004F800002E69D0B1EB0A0564EB030404FA0CFC86
:10050800FD40FC404CEA0505C6E90054002747E7D2
:10051800C2F1200320FA03F7954001FA02F021FA0C
:1005280003F34FEA154E3843010CB3FBFEF71FFAED
:1005380085F80EFB173341EA034107FB08F38B42AA
:1005480004FA02F407D9691807F1FF3C2FD28B424D
:100558002DD9023F2944CB1A81B2B3FBFEF00EFB22
:10056800103341EA034100FB08F38B4207D96918AD
:1005780000F1FF3C17D28B4215D902382944C91A19
:1005880040EA07473BE73746304609E70746E7E6CC
:100598001846FBE64145ABD2B8EB020A69EB0E02FE
:1005A80001381346A4E76046E9E7184695E7674629
:1005B800D1E781467CE702382C4447E7ACF1020CCE
:1005C8002B442FE7384608E73746E9E6704700BF6F
:1005D80080B400AF3F4BD3F888303E4A43F47003F1
:1005E800C2F888303B4B1B693A4A43F01003136149
:1005F800394B1B6803F00F03062B07D8364B1B68D3
:1006080023F00F03344A43F007031360334B1B688E
:10061800324A43F001031360304B00221A612F4B1A
:100628001A682E492E4B13400B602B4B1B6803F0A6
:100638000F03072B07D9284B1B6823F00F03264A03
:1006480043F007031360254B00229A61234B0022D5
:10065800DA61224B00221A62204B224A9A621F4B0F
:10066800214ADA621D4B214A1A631C4B00225A6345
:100678001A4B1E4A9A63194B0022DA63174B1B4A1E
:100688001A64164B00225A64144B1B68134A23F44D
:1006980080231360114B00221A66154B5B6A144ABB
:1006A80043F480435362134B1A68134B1340B3F15E
:1006B800005F02D2114B01221A60114B43F2D202A1
:1006C8001A60044B4FF000629A6000BFBD465DF8A7
:1006D800047B704700ED00E00020005200440258FF
:1006E8007FEDF6EA000202020000FF01800201012C
:1006F800C00000580010005C0000FFFF0881005196
:100708000040005280B400AFBFF34F8FBFF36F8F2C
:100718000B4B0022C3F85022BFF34F8FBFF36F8FEC
:10072800074B5B69064A43F400335361BFF34F8FAD
:10073800BFF36F8F00BFBD465DF8047B704700BFF5
:1007480000ED00E080B485B000AF1D4B0022C3F877
:100758008420BFF34F8F1A4BD3F880307B607B68BF
:100768005B0BC3F30E03FB607B68DB08C3F3090371
:10077800BB60FB685A0143F6E0731340BA689207FE
:100788000F491343C1F86032BB685A1EBA60002B88
:10079800EFD1FB685A1EFA60002BE5D1BFF34F8FEB
:1007A800074B5B69064A43F480335361BFF34F8FAD
:1007B800BFF36F8F00BF1437BD465DF8047B7047E9
:1007C80000ED00E0B0B5ADF5876D00AFFFF79AFF1B
:1007D800FFF7B8FF4FF6FF73C7F8343400BF464B36
:1007E8001B6803F40043002B06D0D7F834345A1E94
:1007F800C7F83424002BF2DCD7F83434002B01DAA4
:1008080000F0D4FA00F014FC00F084F83A4BD3F866
:10081800E030394A43F00073C2F8E030364BD3F881
:10082800E03003F000723B1D1A603B1D1B6800207E
:1008380000F07EFF0021002000F094FF4FF6FF73C8
:10084800C7F8343400BF2C4B1B6803F40043002B5B
:1008580006D1D7F834345A1EC7F83424002BF2DCFA
:10086800D7F83434002B01DA00F0A0FA224BD3F881
:10087800D430214A43F00103C2F8D4301E4BD3F8D8
:10088800D43003F001023B461A603B461B6800F077
:10089800C7F900F069F900F0F5F800F019F907F068
:1008A8003DFA0022154916480BF0E4F8034687F88C
:1008B80033340A22134914480BF022F90346002B5B
:1008C80001D000F073FA07F10803104A1C461546D8
:1008D8000FCD0FC40FCD0FC495E8030084E80300C3
:1008E80007F108010A4B282207480BF08DFC06483F
:1008F8000BF0C0FFFEE700BF00440258842600202A
:10090800E03600201000002068040020F8C9000824
:100918004C15002080B5CCB000AF07F1E4034C22A1
:10092800002118460CF050F807F1C40320220021DA
:1009380018460CF049F807F108031846BC231A4674
:1009480000210CF041F8042001F056F83B1D00226C
:100958001A60494BDB6A484A23F00103D362464BCD
:10096800DB6A03F001023B1D1A60444B9B6923F4C8
:100978004043424A43F480439361404B9B6903F4EC
:1009880040423B1D1A603B1D1B6800BF3B4B9B69E7
:1009980003F40053B3F5005FF8D10223C7F8E4303D
:1009A8000123C7F8F0304023C7F8F4300223C7F812
:1009B80008310023C7F80C310423C7F810310C2381
:1009C800C7F814310223C7F818310423C7F81C31BB
:1009D8000223C7F820310C23C7F824310023C7F8B5
:1009E80028310023C7F82C3107F1E403184601F039
:1009F8005DF80346002B01D000F0D8F93F23C7F873
:100A0800C4300023C7F8C8300023C7F8CC3000230F
:100A1800C7F8D0300023C7F8D4300023C7F8D8303F
:100A28000023C7F8DC300023C7F8E03007F1C4031F
:100A38000021184601F04AFC0346002B01D000F0C3
:100A4800B5F907F108030E4A1A6007F108030022F6
:100A5800DA6407F1080300225A6707F10803184609
:100A680001F0B8FF0346002B01D000F09FF900BF4A
:100A780007F59877BD4680BD000400580048025825
:100A88000200010080B500AF0F4B104A1A600E4BF0
:100A980000225A600C4B00229A600B4B4FF48042A4
:100AA800DA60094B00221A61074BC8225A61064BCB
:100AB80001229A61044803F051FE0346002B01D03D
:100AC80000F074F900BF80BD50150020007000527E
:100AD80080B500AF224B234A1A60214B4FF4E13214
:100AE8005A601F4B00229A601D4B0022DA601C4B93
:100AF80000221A611A4B0C225A61194B00229A6182
:100B0800174B0022DA61164B00221A62144B00229E
:100B18005A62134B00229A62114805F08BFA034679
:100B2800002B01D000F042F900210D4806F025FA0B
:100B38000346002B01D000F039F90021084806F0DF
:100B48005AFA0346002B01D000F030F9044806F0A9
:100B5800DBF90346002B01D000F028F900BF80BD67
:100B6800C01400200048004080B582B000AF294B77
:100B7800D3F8D430274A43F00103C2F8D430254BC8
:100B8800D3F8D43003F001037B607B68224B234AFF
:100B98001A60214B1D225A601F4B00229A601E4B7F
:100BA8000022DA601C4B00221A611B4B02225A6198
:100BB800194B08229A61184B0022DA61164B002261
:100BC8001A62154B4FF000725A62134B01229A6257
:100BD800114B0022DA62104B00221A630E4B0022DE
:100BE8005A630D4B00229A630B4800F0CFFD034671
:100BF800002B01D000F0DAF800220021064800F0AE
:100C080011FE0346002B01D000F0D0F800BF0837D2
:100C1800BD4680BD004402580C260020400000520A
:100C280080B58CB000AF07F11C0300221A605A602F
:100C38009A60DA601A61584BD3F8E030564A43F0AC
:100C48000403C2F8E030544BD3F8E03003F0040357
:100C5800BB61BB69504BD3F8E0304F4A43F0800387
:100C6800C2F8E0304C4BD3F8E03003F080037B61EE
:100C78007B69494BD3F8E030474A43F00103C2F897
:100C8800E030454BD3F8E03003F001033B613B69AA
:100C9800414BD3F8E030404A43F00203C2F8E03059
:100CA8003D4BD3F8E03003F00203FB60FB683A4B9E
:100CB800D3F8E030384A43F00803C2F8E030364B46
:100CC800D3F8E03003F00803BB60BB68324BD3F8BD
:100CD800E030314A43F04003C2F8E0302E4BD3F8FD
:100CE800E03003F040037B607B683223FB61022322
:100CF8003B6200237B620023BB620B23FB6207F18C
:100D08001C031946254800F063FB8623FB61022378
:100D18003B6200237B620023BB620B23FB6207F16B
:100D28001C0319461E4800F053FB4FF40053FB61A7
:100D380002233B6200237B620023BB620B23FB621E
:100D480007F11C031946174800F042FB4FF4C8533B
:100D5800FB6102233B6200237B620023BB620A2300
:100D6800FB6207F11C0319460D4800F031FB4FF4F4
:100D78002053FB6102233B6200237B620023BB629A
:100D88000B23FB6207F11C031946074800F020FB00
:100D980000BF3037BD4680BD0044025800080258E5
:100DA80000000258000402580018025880B400AF2E
:100DB80000BFBD465DF8047B7047000080B483B077
:100DC80000AF0A4BD3F8F430084A43F00203C2F8E4
:100DD800F430064BD3F8F43003F002037B607B68F1
:100DE80000BF0C37BD465DF8047B704700440258CD
:100DF80080B58AB000AF786007F1140300221A604A
:100E08005A609A60DA601A617B681B682E4A9342BE
:100E180055D12E4BD3F8D4302C4A43F48033C2F842
:100E2800D4302A4BD3F8D43003F480333B613B6988
:100E3800264BD3F8E030254A43F00403C2F8E030EB
:100E4800224BD3F8E03003F00403FB60FB681F4B30
:100E5800D3F8E0301D4A43F00803C2F8E0301B4BDA
:100E6800D3F8E03003F00803BB60BB684FF4F853D5
:100E78007B610223BB610023FB6103233B620C23DC
:100E88007B6207F114031946114800F0A1FA042304
:100E98007B610223BB610023FB6103233B620C23BC
:100EA8007B6207F1140319460A4800F091FA002200
:100EB8000021312000F057FA312000F06EFA00BF0F
:100EC8002837BD4680BD00BF00700052004402585C
:100ED80000080258000C025880B58AB000AF78604C
:100EE80007F1140300221A605A609A60DA601A61E6
:100EF8007B681B681A4A93422ED11A4BD3F8E83004
:100F0800184A43F48023C2F8E830164BD3F8E83087
:100F180003F480233B613B69124BD3F8E030114A5C
:100F280043F00803C2F8E0300E4BD3F8E03003F08A
:100F38000803FB60FB684FF440737B610223BB61CD
:100F48000023FB6100233B6207237B6207F1140344
:100F58001946054800F03CFA00BF2837BD4680BD59
:100F68000048004000440258000C025880B400AF0A
:100F780000BFBD465DF8047B704780B400AFFEE754
:100F880080B400AFFEE780B400AFFEE780B400AFE6
:100F9800FEE780B400AF00BFBD465DF8047B704734
:100FA80080B400AF00BFBD465DF8047B704780B4D5
:100FB80000AF00BFBD465DF8047B704780B500AF49
:100FC80000F0A8F800BF80BD80B500AF024803F06C
:100FD80039FE00BF80BD00BF50150020DFF834D0B7
:100FE800FFF7F6FA002103E00B4B5B58435004313E
:100FF8000A480B4B42189A42F6D30A4A02E00023E9
:1010080042F8043B084B9A42F9D30BF0B9FCFFF7BE
:10101800D9FB70470000022010CF00080000002014
:1010280010000020100400201C470020FEE70000EC
:1010380080B582B000AF032000F08AF901F0FCFA15
:101048000146154B9B691B0A03F00F03134AD35C37
:1010580003F01F0321FA03F37B600F4B9B6903F036
:101068000F030E4AD35C03F01F037A6822FA03F3D6
:101078000B4A13600B4A7B681360002000F014F8D9
:101088000346002B01D0012302E0FFF797FE00235F
:1010980018460837BD4680BD0044025884CA000877
:1010A800040000200000002080B582B000AF786006
:1010B800154B1B78002B01D1012321E0134B1A6833
:1010C800114B1B7819464FF47A73B3FBF1F3B2FB5B
:1010D800F3F3184600F06FF90346002B01D0012303
:1010E8000EE07B680F2B0AD8002279684FF0FF309A
:1010F80000F039F9064A7B681360002300E00123F9
:1011080018460837BD4680BD0C00002000000020AE
:101118000800002080B400AF064B1B781A46064B27
:101128001B681344044A136000BFBD465DF8047B86
:10113800704700BF0C0000207826002080B400AF64
:10114800034B1B681846BD465DF8047B704700BF1B
:101158007826002080B584B000AF7860FFF7EEFFF6
:10116800B8607B68FB60FB68B3F1FF3F05D0094BB3
:101178001B781A46FB681344FB6000BFFFF7DEFFCD
:101188000246BB68D31AFA689A42F7D800BF1037EC
:10119800BD4680BD0C00002080B400AF034B1B6827
:1011A8001B0C1846BD465DF8047B70470010005CB8
:1011B80080B485B000AF78607B6803F00703FB60FC
:1011C8000B4BDB68BB60BA684FF6FF031340BB608C
:1011D800FB681A02BB681A43064B1343BB60044AF8
:1011E800BB68D36000BF1437BD465DF8047B704709
:1011F80000ED00E00000FA0580B400AF044BDB68A6
:101208001B0A03F007031846BD465DF8047B7047C8
:1012180000ED00E080B483B000AF0346FB80B7F96F
:101228000630002B0BDBFB8803F01F020749B7F9D8
:1012380006305B09012000FA02F241F8232000BFC2
:101248000C37BD465DF8047B704700BF00E100E045
:1012580080B483B000AF03463960FB80B7F906302D
:10126800002B0ADB3B68DAB20C49B7F906301201E9
:10127800D2B20B4483F800230AE03B68DAB208498B
:10128800FB8803F00F03043B1201D2B20B441A7619
:1012980000BF0C37BD465DF8047B704700E100E0F5
:1012A80000ED00E080B489B000AFF860B9607A6002
:1012B800FB6803F00703FB61FB69C3F10703042B19
:1012C80028BF0423BB61FB690433062B02D9FB69E1
:1012D800033B00E000237B614FF0FF32BB6902FA59
:1012E80003F3DA43BB681A407B699A404FF0FF3139
:1012F8007B6901FA03F3D9437B680B401343184613
:101308002437BD465DF8047B7047000080B582B085
:1013180000AF78607B68013BB3F1807F01D3012384
:101328000FE00A4A7B68013B53600F214FF0FF3002
:10133800FFF78EFF054B00229A60044B07221A60C4
:10134800002318460837BD4680BD00BF10E000E006
:1013580080B582B000AF78607868FFF729FF00BFDA
:101368000837BD4680BD80B586B000AF0346B9607A
:101378007A60FB81FFF740FF78617A68B96878691D
:10138800FFF790FF0246B7F90E3011461846FFF7EF
:101398005FFF00BF1837BD4680BD80B582B000AF83
:1013A8000346FB80B7F906301846FFF733FF00BF46
:1013B8000837BD4680BD80B582B000AF78607868D8
:1013C800FFF7A4FF034618460837BD4680BD000056
:1013D80080B489B000AF786039600023FB61894B25
:1013E8007B6194E13B681A680121FB6901FA03F308
:1013F80013403B613B69002B00F086813B685B68CA
:10140800012B0BD03B685B68022B07D03B685B68FD
:10141800112B03D03B685B68122B30D17B689B682B
:10142800BB61FB695B00032202FA03F3DB43BA6981
:101438001340BB613B68DA68FB695B0002FA03F39F
:10144800BA691343BB617B68BA699A607B685B6859
:10145800BB610122FB6902FA03F3DB43BA6913405B
:10146800BB613B685B681B0903F00102FB6902FA78
:1014780003F3BA691343BB617B68BA695A607B6836
:10148800DB68BB61FB695B00032202FA03F3DB4301
:10149800BA691340BB613B689A68FB695B0002FA52
:1014A80003F3BA691343BB617B68BA69DA603B68C6
:1014B8005B68022B03D03B685B68122B23D1FB6966
:1014C800DA087B68083253F82230BB61FB6903F005
:1014D80007039B000F2202FA03F3DB43BA691340A8
:1014E800BB613B681A69FB6903F007039B0002FABA
:1014F80003F3BA691343BB61FB69DA087B680832F6
:10150800B96943F822107B681B68BB61FB695B0003
:10151800032202FA03F3DB43BA691340BB613B6859
:101528005B6803F00302FB695B0002FA03F3BA6924
:101538001343BB617B68BA691A603B685B6803F058
:101548008053002B00F0E0802F4BD3F8F4302E4A64
:1015580043F00203C2F8F4302B4BD3F8F43003F015
:101568000203FB60FB68294AFB699B08023352F8B7
:101578002330BB61FB6903F003039B000F2202FACF
:1015880003F3DB43BA691340BB617B68204A93428B
:1015980052D07B681F4A934231D07B681E4A9342DF
:1015A8002BD07B681D4A934225D07B681C4A934206
:1015B8001FD07B681B4A934219D07B681A4A934212
:1015C80013D07B68194A93420DD07B68184A93421E
:1015D80007D07B68174A934201D109232DE00A23DB
:1015E8002BE0082329E0072327E0062325E005232D
:1015F80023E0042321E003231FE002231DE001234D
:101608001BE000BF80000058004402580004005846
:10161800000002580004025800080258000C025842
:10162800001002580014025800180258001C0258F2
:1016380000200258002402580023FA6902F003022D
:1016480092009340BA691343BB613849FB699B0810
:101658000233BA6941F823207B691B68BB613B6987
:10166800DB43BA691340BB613B685B6803F48033B2
:10167800002B03D0BA693B691343BB617B69BA6924
:101688001A607B695B68BB613B69DB43BA691340DD
:10169800BB613B685B6803F40033002B03D0BA6975
:1016A8003B691343BB617B69BA695A604FF0B04329
:1016B8001B68BB613B69DB43BA691340BB613B688C
:1016C8005B6803F48013002B03D0BA693B691343AA
:1016D800BB614FF0B042BB6913604FF0B0435B6829
:1016E800BB613B69DB43BA691340BB613B685B681C
:1016F80003F40013002B03D0BA693B691343BB61A1
:101708004FF0B042BB695360FB690133FB613B6832
:101718001A68FB6922FA03F3002B7FF463AE00BF5B
:101728002437BD465DF8047B704700BF00040058AD
:1017380080B483B000AF7860084A7B68203352F8E1
:101748002330074A934201D1002300E001231846C1
:101758000C37BD465DF8047B704700BF0064025833
:101768000003008080B483B000AF78603960064918
:101778003B6843F440727B6841F8232000BF0C3774
:10178800BD465DF8047B70470064025880B584B09C
:1017980000AF7860FFF7D2FCF8607B68002B01D1BE
:1017A80001233BE07B68002283F83C207B6802220F
:1017B80083F83D207B681B68DA687B681B6822F029
:1017C8000102DA600FE0FFF7B9FC0246FB68D31AA2
:1017D800052B08D97B6840229A667B68032283F828
:1017E8003D2001231AE07B681B68DB6803F00103D6
:1017F800002BE8D1786800F067F87B680022DA658A
:101808007B6800221A667B6800225A667B68002281
:101818009A667B68012283F83D200023184610371A
:10182800BD4680BD80B487B000AFF860B9607A600B
:101838000023FB75FB68002B01D101233EE0FB6808
:1018480093F83C30012B01D1022337E0FB680122D9
:1018580083F83C20FB6893F83D30DBB2012B26D19E
:10186800FB681B681B6903F08043002B1CD1FB68D5
:101878001B68BA681A63FB681B687A685A63BB6896
:10188800002B08D1FB681B681A69FB681B6822F0EB
:1018980000421A610DE0FB681B681A69FB681B6847
:1018A80042F000421A6104E00123FB7501E00123C4
:1018B800FB75FB68002283F83C20FB7D18461C372B
:1018C800BD465DF8047B704780B485B000AF786092
:1018D8007B68D9687B681A697B681B680A43DA6089
:1018E8007B685A697B689B691A437B68DB691A4382
:1018F8007B681B6A1A437B685B6A1A437B68DB6AEE
:101908001A437B681B6B1A437B689B6A013B9B04E9
:1019180042EA03017B689A687B681B680A431A617C
:101928007B685B68B3F1804F07D17B681B681A69D5
:101938007B681B6842F040421A617B681B68002282
:101948005A617B685B6B002B11DA7B681B685A69EC
:101958007B681B6842F480225A617B685B6B5B4240
:10196800FB607B681B68FA6892B21A6206E07B68C3
:101978005B6B1A467B681B6892B21A627B689B6B2A
:10198800002B15DA7B681B685A697B681B6842F470
:1019980000225A617B689B6B5B42FB607B681B681B
:1019A800196AFB681A047B681B680A431A6209E013
:1019B8007B681B68196A7B689B6B1A047B681B68C9
:1019C8000A431A627B685B68B3F1804F06D07B6874
:1019D8005A687B681B68D2B29A6203E07B681B680E
:1019E80000229A627B681B6800225A6200BF143783
:1019F800BD465DF8047B704780B584B000AF786061
:101A0800294BDB6803F00703062B0AD0264BDB685B
:101A180003F03F037A689A4201D0012340E0002393
:101A28003EE0214BDB6823F03F021F497B681343EC
:101A3800CB60FFF783FBF86009E0FFF77FFB024606
:101A4800FB68D31AB3F57A7F01D9012328E0164B36
:101A58005B6803F40053B3F5005FEED17B681E2B7F
:101A680008D07B682E2B05D07B681D2B02D07B68A5
:101A78002D2B14D1FFF762FBF86009E0FFF75EFB3E
:101A88000246FB68D31AB3F57A7F01D9012307E030
:101A9800054BDB6803F48033B3F5803FEED10023B8
:101AA80018461037BD4680BD0048025880B58CB036
:101AB80000AF78607B68002B01D10123FFE37B68CE
:101AC8001B6803F00103002B00F08780994B1B690A
:101AD80003F03803FB62974B9B6ABB62FB6A102BCF
:101AE80007D0FB6A182B10D1BB6A03F00303022B43
:101AF8000BD1904B1B6803F40033002B6CD07B6830
:101B08005B68002B68D10123D9E37B685B68B3F578
:101B1800803F06D1874B1B68864A43F480331360A5
:101B28002EE07B685B68002B0CD1824B1B68814AD6
:101B380023F4803313607F4B1B687E4A23F4802391
:101B480013601DE07B685B68B3F5A02F0CD1794B5F
:101B58001B68784A43F480231360764B1B68754AE8
:101B680043F4803313600BE0724B1B68714A23F413
:101B7800803313606F4B1B686E4A23F48023136015
:101B88007B685B68002B13D0FFF7D8FA786208E00F
:101B9800FFF7D4FA02467B6AD31A642B01D90323D0
:101BA8008DE3644B1B6803F40033002BF0D014E082
:101BB800FFF7C4FA786208E0FFF7C0FA02467B6ACA
:101BC800D31A642B01D9032379E35A4B1B6803F416
:101BD8000033002BF0D100E000BF7B681B6803F0E6
:101BE8000203002B00F0AE80524B1B6903F0380350
:101BF8003B62504B9B6AFB613B6A002B07D03B6AF8
:101C0800182B3AD1FB6903F00303002B35D1494B5C
:101C18001B6803F00403002B05D07B68DB68002BEE
:101C280001D101234BE3FFF7B7FA024641F2030360
:101C38009A4217D87B681B69402B08D13D4B5B68DB
:101C480023F47C333B4A43F4003353607AE0394B46
:101C58005B6823F47C327B681B691B03354913439B
:101C68004B606FE0334B5B6823F0FE427B681B6977
:101C78001B06304913434B6064E07B68DB68002B2C
:101C880045D02C4B1B6823F019027B68DB68294977
:101C980013430B60FFF752FA786208E0FFF74EFA39
:101CA80002467B6AD31A022B01D9032307E3214B8F
:101CB8001B6803F00403002BF0D0FFF76DFA02460F
:101CC80041F203039A4217D87B681B69402B08D15D
:101CD800184B5B6823F47C33164A43F40033536093
:101CE80030E0144B5B6823F47C327B681B691B0370
:101CF800104913434B6025E00E4B5B6823F0FE420E
:101D08007B681B691B060B4913434B601AE0094BA0
:101D18001B68084A23F001031360FFF70FFA786283
:101D28000AE0FFF70BFA02467B6AD31A022B03D9A3
:101D38000323C4E200440258A44B1B6803F00403C5
:101D4800002BEED17B681B6803F01003002B00F01A
:101D5800A9809E4B1B6903F03803BB619B4B9B6AB0
:101D68007B61BB69082B07D0BB69182B3AD17B690B
:101D780003F00303012B35D1944B1B6803F48073E4
:101D8800002B05D07B68DB69802B01D0012396E20C
:101D9800FFF702FA024641F203039A4217D87B681A
:101DA8001B6A202B08D1894B5B6823F0F843874ACC
:101DB80043F08043536075E0844B5B6823F0F8423E
:101DC8007B681B6A9B06814913434B606AE07F4B23
:101DD800DB6823F07C527B681B6A1B067B49134334
:101DE800CB605FE07B68DB69002B42D0774B1B68D8
:101DF800764A43F080031360FFF7A0F9786208E0A1
:101E0800FFF79CF902467B6AD31A022B01D90323F8
:101E180055E26E4B1B6803F48073002BF0D0FFF77C
:101E2800BBF9024641F203039A4217D87B681B6A42
:101E3800202B08D1654B5B6823F0F843634A43F0D5
:101E4800804353602EE0614B5B6823F0F8427B6867
:101E58001B6A9B065D4913434B6023E05B4BDB68C1
:101E680023F07C527B681B6A1B0658491343CB60DE
:101E780018E0564B1B68554A23F080031360FFF7A0
:101E88005DF9786208E0FFF759F902467B6AD31AD0
:101E9800022B01D9032312E24C4B1B6803F4807315
:101EA800002BF0D17B681B6803F00803002B36D0A9
:101EB8007B685B69002B19D0444B5B6F434A43F046
:101EC80001035367FFF73AF9786208E0FFF736F93C
:101ED80002467B6AD31A022B01D90323EFE13B4B5D
:101EE8005B6F03F00203002BF0D018E0374B5B6FF9
:101EF800364A23F001035367FFF720F9786208E0B8
:101F0800FFF71CF902467B6AD31A022B01D9032377
:101F1800D5E12E4B5B6F03F00203002BF0D17B68F9
:101F28001B6803F02003002B36D07B689B69002BCD
:101F380019D0264B1B68254A43F480531360FFF7DA
:101F4800FDF8786208E0FFF7F9F802467B6AD31AD1
:101F5800022B01D90323B2E11C4B1B6803F4005385
:101F6800002BF0D018E0194B1B68184A23F4805353
:101F78001360FFF7E3F8786208E0FFF7DFF802463E
:101F88007B6AD31A022B01D9032398E10F4B1B68F4
:101F980003F40053002BF0D17B681B6803F00403A3
:101FA800002B00F085800A4B1B68094A43F48073B4
:101FB8001360FFF7C3F878620CE0FFF7BFF802463A
:101FC8007B6AD31A642B05D9032378E100440258AD
:101FD80000480258964B1B6803F48073002BECD022
:101FE8007B689B68012B06D1924B1B6F914A43F08B
:101FF800010313672DE07B689B68002B0CD18D4B88
:102008001B6F8C4A23F0010313678A4B1B6F894AA5
:1020180023F0040313671CE07B689B68052B0CD135
:10202800844B1B6F834A43F004031367814B1B6F78
:10203800804A43F0010313670BE07E4B1B6F7D4A18
:1020480023F0010313677B4B1B6F7A4A23F00403C9
:1020580013677B689B68002B15D0FFF76FF87862D1
:102068000AE0FFF76BF802467B6AD31A41F288321E
:10207800934201D9032322E16E4B1B6F03F0020345
:10208800002BEED014E0FFF759F878620AE0FFF76A
:1020980055F802467B6AD31A41F28832934201D935
:1020A80003230CE1634B1B6F03F00203002BEED1FB
:1020B8007B685B6A002B00F001815E4B1B6903F0B3
:1020C8003803182B00F0BC807B685B6A022B40F059
:1020D8009580584B1B68574A23F080731360FFF7AD
:1020E8002DF8786208E0FFF729F802467B6AD31AD0
:1020F800022B01D90323E2E04E4B1B6803F0007367
:10210800002BF0D14B4B9A6A4B4B13407A68916A7B
:102118007A68D26A12010A43464913438B627B6884
:102128001B6B013BC3F308027B685B6B013B5B02E3
:102138009BB21A437B689B6B013B1B0403F4FE03B1
:102148001A437B68DB6B013B1B0603F0FE433949EE
:1021580013430B63374BDB6A364A23F00103D36220
:10216800344B5A6B354B13407A68926CD200314924
:1021780013434B632F4BDB6A23F00C027B681B6C09
:102188002C491343CB622B4BDB6A23F002027B689A
:102198005B6C28491343CB62264BDB6A254A43F420
:1021A8008033D362234BDB6A224A43F40033D36281
:1021B800204BDB6A1F4A43F48023D3621D4BDB6A42
:1021C8001C4A43F00103D3621A4B1B68194A43F0B7
:1021D80080731360FEF7B2FF786208E0FEF7AEFF87
:1021E80002467B6AD31A022B01D9032367E0114BFD
:1021F8001B6803F00073002BF0D05FE00D4B1B68E9
:102208000C4A23F080731360FEF798FF786208E0A9
:10221800FEF794FF02467B6AD31A022B01D90323E7
:102228004DE0044B1B6803F00073002BF0D145E030
:1022380000480258004402580CFCFFFF0700FFFF4B
:10224800214B9B6A3B61204B1B6BFB607B685B6A85
:10225800012B31D03B6903F003027B689B6A9A42E9
:102268002AD13B691B0903F03F027B68DB6A9A426B
:1022780022D1FB68C3F308027B681B6B013B9A42BF
:102288001AD1FB685B0A03F07F027B685B6B013B3A
:102298009A4211D1FB681B0C03F07F027B689B6B91
:1022A800013B9A4208D1FB681B0E03F07F027B6852
:1022B800DB6B013B9A4201D0012300E00023184662
:1022C8003037BD4680BD00BF0044025880B586B097
:1022D80000AF786039607B68002B01D101239CE155
:1022E8008A4B1B6803F00F033A689A4210D9874B50
:1022F8001B6823F00F0285493B6813430B60834B2F
:102308001B6803F00F033A689A4201D0012384E165
:102318007B681B6803F00403002B10D07B681A69E4
:102328007B4B9B6903F070039A4208D9784B9B69F1
:1023380023F070027B681B69754913438B617B68C6
:102348001B6803F00803002B10D07B685A69704B98
:10235800DB6903F070039A4208D96D4BDB6923F0FF
:1023680070027B685B696A491343CB617B681B68B1
:1023780003F01003002B10D07B689A69644BDB696B
:1023880003F4E0639A4208D9614BDB6923F4E06205
:102398007B689B695E491343CB617B681B6803F0CC
:1023A8002003002B10D07B68DA69594B1B6A03F0B5
:1023B80070039A4208D9564B1B6A23F070027B6857
:1023C800DB69534913430B627B681B6803F0020304
:1023D800002B10D07B68DA684D4B9B6903F00F0324
:1023E8009A4208D94A4B9B6923F00F027B68DB6845
:1023F800474913438B617B681B6803F00103002B7B
:1024080055D0434B9B6923F470627B689B684049B5
:1024180013438B617B685B68022B07D13C4B1B68BD
:1024280003F40033002B21D10123F6E07B685B68BD
:10243800032B07D1364B1B6803F00073002B15D113
:102448000123EAE07B685B68012B07D1304B1B68EE
:1024580003F48073002B09D10123DEE02C4B1B68A9
:1024680003F00403002B01D10123D6E0284B1B699C
:1024780023F007027B685B68254913430B61FEF76D
:102488005DFE78610AE0FEF759FE02467B69D31AC1
:1024980041F28832934201D90323BEE01C4B1B69E9
:1024A80003F038027B685B68DB009A42EBD17B68FB
:1024B8001B6803F00203002B10D07B68DA68144B0A
:1024C8009B6903F00F039A4208D2114B9B6923F0D2
:1024D8000F027B68DB680E4913438B610B4B1B684B
:1024E80003F00F033A689A4214D2084B1B6823F092
:1024F8000F0206493B6813430B60044B1B6803F04B
:102508000F033A689A4205D0012386E00020005262
:10251800004402587B681B6803F00403002B10D0AA
:102528007B681A693F4B9B6903F070039A4208D293
:102538003C4B9B6923F070027B681B693949134344
:102548008B617B681B6803F00803002B10D07B6845
:102558005A69344BDB6903F070039A4208D2314B55
:10256800DB6923F070027B685B692E491343CB61FA
:102578007B681B6803F01003002B10D07B689A69F6
:10258800284BDB6903F4E0639A4208D2254BDB69E8
:1025980023F4E0627B689B6922491343CB617B6823
:1025A8001B6803F02003002B10D07B68DA691D4BF1
:1025B8001B6A03F070039A4208D21A4B1B6A23F075
:1025C80070027B68DB69174913430B6200F034F82B
:1025D8000146144B9B691B0A03F00F03124AD35C94
:1025E80003F01F0321FA03F33B610E4B9B6903F0D1
:1025F8000F030D4AD35C03F01F033A6922FA03F371
:102608000A4A13600A4A3B6913600A4B1B6818465A
:10261800FEF74AFD0346FB73FB7B18461837BD4699
:1026280080BD00BF0044025884CA0008040000208E
:10263800000000200800002080B489B000AFAF4B34
:102648001B6903F03803182B00F24E8101A252F8DF
:1026580023F000BFC1260008F1280008F12800086F
:10266800F1280008F1280008F1280008F1280008DE
:10267800F1280008E7260008F1280008F1280008DA
:10268800F1280008F1280008F1280008F1280008BE
:10269800F1280008ED260008F1280008F1280008B4
:1026A800F1280008F1280008F1280008F12800089E
:1026B800F1280008F3260008904B1B6803F020035C
:1026C800002B09D08D4B1B68DB0803F003038C4AF1
:1026D80022FA03F3BB610AE1894BBB6107E1894B2D
:1026E800BB6104E1884BBB6101E1844B9B6A03F049
:1026F80003037B61814B9B6A1B0903F03F033B612A
:102708007E4BDB6A03F00103FB607C4B5B6BDB08F1
:10271800C3F30C03FA6802FB03F307EE903AF8EEF2
:10272800677AC7ED027A3B69002B00F0DA807B6993
:10273800012B5AD0012B02D3022B78D099E06F4B92
:102748001B6803F02003002B2DD06C4B1B68DB08A3
:1027580003F003036A4A22FA03F37B607B6807EEFF
:10276800903AF8EE676A3B6907EE903AF8EE677AB6
:1027780086EEA77A614B1B6BC3F3080307EE903A0A
:10278800F8EE676A97ED026ADFED605AC6EE257AC1
:1027980076EEA77AF7EE006A77EEA67A67EE277AE2
:1027A800C7ED077A87E03B6907EE903AF8EE677A5B
:1027B800DFED576A86EEA77A504B1B6BC3F308030D
:1027C80007EE903AF8EE676A97ED026ADFED4F5A26
:1027D800C6EE257A76EEA77AF7EE006A77EEA67A45
:1027E80067EE277AC7ED077A65E03B6907EE903A0E
:1027F800F8EE677ADFED476A86EEA77A3F4B1B6BE8
:10280800C3F3080307EE903AF8EE676A97ED026A99
:10281800DFED3E5AC6EE257A76EEA77AF7EE006A25
:1028280077EEA67A67EE277AC7ED077A43E03B6929
:1028380007EE903AF8EE677ADFED376A86EEA77A08
:102848002E4B1B6BC3F3080307EE903AF8EE676A4A
:1028580097ED026ADFED2D5AC6EE257A76EEA77A55
:10286800F7EE006A77EEA67A67EE277AC7ED077A61
:1028780021E03B6907EE903AF8EE677ADFED256ACA
:1028880086EEA77A1D4B1B6BC3F3080307EE903A3D
:10289800F8EE676A97ED026ADFED1C5AC6EE257AF4
:1028A80076EEA77AF7EE006A77EEA67A67EE277AD1
:1028B800C7ED077A00BF114B1B6B5B0A03F07F0360
:1028C80001333B603B6807EE903AB8EE677AD7ED84
:1028D800076AC6EE877AFCEEE77A17EE903ABB6194
:1028E80005E00023BB6102E0064BBB6100BFBB698A
:1028F80018462437BD465DF8047B704700440258EB
:102908000090D00300093D0040787D01000000469A
:102918000024744C0024744A20BCBE4B80B582B09D
:1029280000AFFFF789FE0146104B9B691B0A03F0B5
:102938000F030F4AD35C03F01F0321FA03F37B60F4
:102948000A4B9B6903F00F03094AD35C03F01F038A
:102958007A6822FA03F3074A1360074A7B68136010
:10296800044B1B6818460837BD4680BD0044025812
:1029780084CA0008040000200000002080B500AFD1
:10298800FFF7CCFF0146064BDB691B0903F0070381
:10299800044AD35C03F01F0321FA03F3184680BDF1
:1029A8000044025884CA000880B500AFFFF7B6FF9C
:1029B8000146064BDB691B0A03F00703044AD35C94
:1029C80003F01F0321FA03F3184680BD00440258A0
:1029D80084CA000880B586B000AF78600023FB7514
:1029E8000023BB757B681B6803F00063002B3DD098
:1029F8007B685B6EB3F5801F13D0B3F5801F02D8D8
:102A0800002B07D01FE0B3F5001F13D0B3F5401F0C
:102A18001CD018E0AF4BDB6AAE4A43F40033D362F4
:102A280015E07B6804330221184601F033FD0346A4
:102A3800FB750CE07B6824330221184601F0DCFDAD
:102A48000346FB7503E00123FB7500E000BFFB7D37
:102A5800002B09D19F4B1B6D23F440127B685B6EE2
:102A68009C4913430B6501E0FB7DBB757B681B68C4
:102A780003F48073002B3DD07B685B6D042B26D854
:102A880001A252F823F000BFA52A0008B32A0008C3
:102A9800C52A0008DD2A0008DD2A00088D4BDB6AFC
:102AA8008C4A43F40033D36215E07B680433002179
:102AB800184601F0EFFC0346FB750CE07B682433F5
:102AC8000021184601F098FD0346FB7503E0012339
:102AD800FB7500E000BFFB7D002B09D17D4B1B6D12
:102AE80023F007027B685B6D7A4913430B6501E0AD
:102AF800FB7DBB757B681B6803F40073002B3ED01D
:102B08007B689B6D802B1CD0802B04D8002B08D0B1
:102B1800402B0DD01EE0C02B1FD0B3F5807F1ED0F8
:102B280018E06C4BDB6A6B4A43F40033D36217E05E
:102B38007B6804330021184601F0ACFC0346FB75A2
:102B48000EE07B6824330021184601F055FD03464A
:102B5800FB7505E00123FB7502E000BF00E000BF44
:102B6800FB7D002B09D15B4B1B6D23F4E0727B6866
:102B78009B6D584913430B6501E0FB7DBB757B6872
:102B88001B6803F48063002B44D07B68D3F8A4301F
:102B9800B3F5800F1FD0B3F5800F05D8002B0AD0EE
:102BA800B3F5001F0ED01FE0B3F5C00F1FD0B3F56B
:102BB800000F1ED018E0474BDB6A464A43F4003347
:102BC800D36217E07B6804330021184601F062FCE9
:102BD8000346FB750EE07B6824330021184601F09C
:102BE8000BFD0346FB7505E00123FB7502E000BF02
:102BF80000E000BFFB7D002B0AD1364B9B6D23F410
:102C080060027B68D3F8A430324913438B6501E036
:102C1800FB7DBB757B681B6803F40063002B44D005
:102C28007B68D3F8A830B3F1007F1FD0B3F1007FE1
:102C380005D8002B0AD0B3F1807F0ED01FE0B3F186
:102C4800407F1FD0B3F1806F1ED018E0214BDB6AA4
:102C5800204A43F40033D36217E07B680433002131
:102C6800184601F017FC0346FB750EE07B68243319
:102C78000021184601F0C0FC0346FB7505E001235E
:102C8800FB7502E000BF00E000BFFB7D002B0AD10E
:102C9800104B9B6D23F0E0627B68D3F8A8300D4998
:102CA80013438B6501E0FB7DBB757B681B6803F0F4
:102CB8000073002B35D07B689B6C102B0CD0102B2D
:102CC80002D8002B1BD017E0202B0CD0302B18D0AB
:102CD80012E000BF00440258AF4BDB6AAE4A43F42F
:102CE8000033D3620EE07B6804330221184601F0FA
:102CF800D1FB0346FB7505E00123FB7502E000BF2D
:102D080000E000BFFB7D002B09D1A34BDB6C23F057
:102D180030027B689B6CA0491343CB6401E0FB7DC8
:102D2800BB757B681B6803F48053002B42D07B681B
:102D3800DB6DB3F5005F1FD0B3F5005F05D8002B3E
:102D48000AD0B3F5805F0ED01FE0B3F5405F1FD007
:102D5800B3F5804F1ED018E08F4BDB6A8E4A43F4E0
:102D68000033D36217E07B6804330021184601F072
:102D780091FB0346FB750EE07B682433002118465F
:102D880001F03AFC0346FB7505E00123FB7502E000
:102D980000BF00E000BFFB7D002B09D17E4B1B6DFF
:102DA80023F4E0427B68DB6D7B4913430B6501E04C
:102DB800FB7DBB757B681B6803F40053002B42D076
:102DC8007B681B6EB3F5003F1BD0B3F5003F05D8F9
:102DD800002B22D0B3F5803F0AD01BE0B3F5802F3B
:102DE8001DD0B3F5A02F1CD0B3F5403F1BD011E088
:102DF8007B6804330121184601F04CFB0346FB7540
:102E080012E07B6824330121184601F0F5FB0346E4
:102E1800FB7509E00123FB7506E000BF04E000BF75
:102E280002E000BF00E000BFFB7D002B09D15A4B38
:102E38001B6D23F4E0227B681B6E574913430B6517
:102E480001E0FB7DBB757B681B6803F48043002BA6
:102E580044D07B68D3F8AC30B3F1005F1BD0B3F13A
:102E6800005F05D8002B22D0B3F1805F0AD01BE0A9
:102E7800B3F1804F1DD0B3F1A04F1CD0B3F1405F28
:102E88001BD011E07B6804330121184601F002FBD6
:102E98000346FB7512E07B6824330121184601F0D4
:102EA800ABFB0346FB7509E00123FB7506E000BF99
:102EB80004E000BF02E000BF00E000BFFB7D002B84
:102EC8000AD1354B9B6D23F0E0427B68D3F8AC30D8
:102ED800314913438B6501E0FB7DBB757B681B683B
:102EE80003F40043002B2DD07B68DB6EB3F1805FC9
:102EF80005D0B3F1005F09D0002B13D00FE0264BAB
:102F0800DB6A254A43F40033D3620CE07B68043360
:102F18000121184601F0BEFA0346FB7503E00123C0
:102F2800FB7500E000BFFB7D002B09D11A4B1B6D20
:102F380023F040527B68DB6E174913430B6501E0B1
:102F4800FB7DBB757B681B6803F08073002B35D055
:102F58007B685B6C032B1BD801A252F823F000BFDF
:102F6800A52F0008792F0008872F0008A52F000833
:102F7800094BDB6A084A43F40033D3620FE07B68ED
:102F880004330221184601F085FA0346FB7506E072
:102F98000123FB7503E000BF0044025800BFFB7D1E
:102FA800002B09D1BA4BDB6C23F003027B685B6C06
:102FB800B7491343CB6401E0FB7DBB757B681B6895
:102FC80003F48003002B00F08680B24B1B68B14AE3
:102FD80043F480731360FEF7B1F8386109E0FEF737
:102FE800ADF802463B69D31A642B02D90323FB755B
:102FF80005E0A84B1B6803F48073002BEFD0FB7D22
:10300800002B66D1A24B1A6F7B68D3F8B0305340BF
:1030180003F44073002B13D09D4B1B6F23F44073B4
:10302800FB609B4B1B6F9A4A43F480331367984BA2
:103038001B6F974A23F480331367954AFB6813671D
:103048007B68D3F8B030B3F5807F15D1FEF776F8FA
:1030580038610BE0FEF772F802463B69D31A41F279
:103068008832934202D90323FB7505E0884B1B6F16
:1030780003F00203002BEDD0FB7D002B26D17B68EB
:10308800D3F8B03003F44073B3F5407F0DD1804BD3
:103098001B6923F47C527B68D3F8B03019097E4B46
:1030A8000B407B4913430B6105E0794B1B69784A58
:1030B80023F47C531361764B1A6F7B68D3F8B030D6
:1030C800C3F30B03724913430B6704E0FB7DBB7525
:1030D80001E0FB7DBB757B681B6803F00103002BD7
:1030E8007DD07B689B6F282B66D801A252F823F00D
:1030F800C7310008C1310008C1310008C1310008DA
:10310800C1310008C1310008C1310008C1310008CF
:103118009D310008C1310008C1310008C1310008E3
:10312800C1310008C1310008C1310008C1310008AF
:10313800AF310008C1310008C1310008C1310008B1
:10314800C1310008C1310008C1310008C13100088F
:10315800C7310008C1310008C1310008C131000879
:10316800C1310008C1310008C1310008C13100086F
:10317800C7310008C1310008C1310008C131000859
:10318800C1310008C1310008C1310008C13100084F
:10319800C73100087B6804330121184601F07AF929
:1031A8000346FB750CE07B6824330121184601F0C7
:1031B80023FA0346FB7503E00123FB7500E000BF1B
:1031C800FB7D002B09D1324B5B6D23F038027B6805
:1031D8009B6F2F4913434B6501E0FB7DBB757B68F3
:1031E8001B6803F00203002B37D07B685B6F052B4D
:1031F80020D801A252F823F04332000819320008FF
:103208002B320008433200084332000843320008DA
:103218007B6804330121184601F03CF90346FB752D
:103228000CE07B6824330121184601F0E5F90346D8
:10323800FB7503E00123FB7500E000BFFB7D002B5D
:1032480009D1134B5B6D23F007027B685B6F104954
:1032580013434B6501E0FB7DBB757B681B6803F07E
:103268000403002B40D07B68D3F89030052B27D877
:1032780001A252F823F000BFCF320008A53200089F
:10328800B7320008CF320008CF320008CF3200082A
:103298000044025800480258CFFFFF007B680433FF
:1032A8000121184601F0F6F80346FB750CE07B682F
:1032B80024330121184601F09FF90346FB7503E00A
:1032C8000123FB7500E000BFFB7D002B0AD1B24B48
:1032D8009B6D23F007027B68D3F89030AE49134307
:1032E8008B6501E0FB7DBB757B681B6803F02003E1
:1032F800002B44D07B68D3F88C30B3F1005F1BD02F
:10330800B3F1005F05D8002B22D0B3F1805F0AD05B
:103318001BE0B3F1804F1DD0B3F1A04F1CD0B3F127
:10332800405F1BD011E07B6804330021184601F090
:10333800B1F80346FB7512E07B6824330221184676
:1033480001F05AF90346FB7509E00123FB7506E015
:1033580000BF04E000BF02E000BF00E000BFFB7D4B
:10336800002B0AD18C4B5B6D23F0E0427B68D3F8CD
:103378008C30894913434B6501E0FB7DBB757B6845
:103388001B6803F04003002B44D07B68D3F89830C7
:10339800B3F5006F1BD0B3F5006F05D8002B22D012
:1033A800B3F5806F0AD01BE0B3F5805F1DD0B3F58D
:1033B800A05F1CD0B3F5406F1BD011E07B680433CD
:1033C8000021184601F066F80346FB7512E07B6899
:1033D80024330221184601F00FF90346FB7509E072
:1033E8000123FB7506E000BF04E000BF02E000BF58
:1033F80000E000BFFB7D002B0AD1674B9B6D23F4D7
:10340800E0527B68D3F89830634913438B6501E039
:10341800FB7DBB757B681B6803F08003002B44D0E1
:103428007B68D3F89C30B3F5804F1BD0B3F5804F41
:1034380005D8002B22D0B3F5005F0AD01BE0B3F506
:10344800004F1DD0B3F5204F1CD0B3F5C04F1BD093
:1034580011E07B6804330021184601F01BF803468D
:10346800FB7512E07B6824330221184601F0C4F88A
:103478000346FB7509E00123FB7506E000BF04E085
:1034880000BF02E000BF00E000BFFB7D002B0AD1B7
:10349800414B9B6D23F460427B68D3F89C303E49D6
:1034A80013438B6501E0FB7DBB757B681B6803F0EC
:1034B8000803002B1AD07B68D3F88030B3F5805FFF
:1034C8000AD17B6824330221184601F095F8034697
:1034D800002B01D00123BB752F4B5B6D23F44052A9
:1034E8007B68D3F880302C4913434B657B681B6895
:1034F80003F01003002B1AD07B68D3F89430B3F58F
:10350800807F0AD17B6824330221184601F074F8C1
:103518000346002B01D00123BB751F4B9B6D23F481
:1035280040727B68D3F894301B4913438B657B68E2
:103538001B6803F40023002B32D07B68D3F8A0303B
:10354800B3F5803F0DD0B3F5003F16D0002B11D155
:103558007B6804330021184600F09CFF0346FB7586
:103568000CE07B6824330221184601F045F8034635
:10357800FB7503E00123FB7500E000BFFB7D002B1A
:103588000CD1054B9B6D23F440327B68D3F8A030F7
:10359800014913438B6503E000440258FB7DBB756A
:1035A8007B681B6803F48023002B2FD07B68D3F83B
:1035B8008430B3F5001F0CD0B3F5401F15D0B3F518
:1035C800801F0FD1794BDB6A784A43F40033D3620A
:1035D8000CE07B6824330121184601F00DF80346FE
:1035E800FB7503E00123FB7500E000BFFB7D002BAA
:1035F8000AD16E4B5B6D23F440127B68D3F884309C
:103608006A4913434B6501E0FB7DBB757B681B680A
:1036180003F48033002B29D07B68DB6C002B03D0AC
:10362800B3F5803F07D00FE0604BDB6A5F4A43F495
:103638000033D3620BE07B6804330221184600F0A4
:1036480029FF0346FB7502E00123FB7500BFFB7DE4
:10365800002B09D1554BDB6C23F480327B68DB6C83
:1036680052491343CB6401E0FB7DBB757B681B6843
:1036780003F00053002B0AD07B682433022118463C
:1036880000F0BAFF0346002B01D00123BB757B680D
:103698001B6803F40033002B2FD07B68DB6FB3F576
:1036A800807F0CD0B3F5807F02D8002B11D00DE0BD
:1036B800B3F5007F0FD0B3F5407F0ED006E03B4B4B
:1036C800DB6A3A4A43F40033D36207E00123FB750F
:1036D80004E000BF02E000BF00E000BFFB7D002B5C
:1036E80009D1324B5B6D23F440727B68DB6F2F4945
:1036F80013434B6501E0FB7DBB757B681B6803F4D6
:103708008013002B08D0294B1B6D23F000427B68E7
:103718001B6F264913430B657B681B6803F08053B6
:10372800002B09D0214B1B6923F480427B68D3F816
:10373800B4301E4913430B617B681B6803F4001304
:10374800002B08D0194B1B6D23F080727B689B6E91
:10375800164913430B657B681B6803F08043002BF5
:103768000DD0124B1B69114A23F4004313610F4B10
:103778001A697B68D3F8B8300C4913430B617B682E
:103788001B68002B08DA094BDB6C23F040527B687E
:103798001B6D06491343CB64BB7D002B01D100236D
:1037A80000E0012318461837BD4680BD0044025882
:1037B80080B590B000AF78607B68B3F5807F50D15A
:1037C800A14B1B6D03F007033B633B6B042B44D8F1
:1037D80001A252F823F000BFF537000805380008A9
:1037E800153800085D3800082538000807F124035B
:1037F800184600F003FDBB6AFB6341E207F11803BA
:10380800184600F063FABB69FB6339E207F10C0361
:10381800184600F0A7FBFB68FB6331E28A4BDB6CC0
:1038280003F040537B637B6B002B02D1874BFB6318
:1038380026E27B6BB3F1805F02D1854BFB631FE20D
:103848007B6BB3F1005F02D1824BFB6318E200236C
:10385800FB6315E2804BFB6312E20023FB6300BFAE
:103868000EE27B68B3F5007F4FD1774B1B6D03F4F5
:10387800E0733B633B6B802B1CD0802B04D8002B60
:1038880008D0402B0ED03CE0C02B37D0B3F5807F5A
:1038980018D036E007F12403184600F0AFFCBB6AE5
:1038A800FB63EDE107F11803184600F00FFABB6956
:1038B800FB63E5E107F10C03184600F053FBFB68D6
:1038C800FB63DDE1604BDB6C03F040537B637B6B98
:1038D800002B02D15D4BFB63D2E17B6BB3F1805FC0
:1038E80002D15B4BFB63CBE17B6BB3F1005F02D191
:1038F800584BFB63C4E10023FB63C1E1564BFB63F8
:10390800BEE10023FB6300BFBAE17B68B3F5806FBB
:1039180053D14D4B9B6D03F460033B633B6BB3F595
:10392800800F1FD0B3F5800F05D8002B0AD0B3F550
:10393800001F0FD03DE0B3F5C00F37D0B3F5000F2F
:1039480018D036E007F12403184600F057FCBB6A8C
:10395800FB6395E107F11803184600F0B7F9BB6956
:10396800FB638DE107F10C03184600F0FBFAFB68D6
:10397800FB6385E1344BDB6C03F040537B637B6B6B
:10398800002B02D1314BFB637AE17B6BB3F1805F93
:1039980002D12F4BFB6373E17B6BB3F1005F02D164
:1039A8002C4BFB636CE10023FB6369E12A4BFB634F
:1039B80066E10023FB6300BF62E17B68B3F5006F3B
:1039C8005DD1214B9B6D03F0E0633B633B6BB3F12F
:1039D800007F1FD0B3F1007F05D8002B0AD0B3F1C8
:1039E800807F0FD047E0B3F1407F41D0B3F1806FC3
:1039F80018D040E007F12403184600F0FFFBBB6A2B
:103A0800FB633DE107F11803184600F05FF9BB6955
:103A1800FB6335E107F10C03184600F0A3FAFB68D5
:103A2800FB632DE1084BDB6C03F040537B637B6B3E
:103A3800002B02D1054BFB6322E17B6BB3F1805F66
:103A48000CD1034BFB631BE1004402580090D003E8
:103A580000093D0040787D010080BB007B6BB3F11D
:103A6800005F02D1894BFB630AE10023FB6307E196
:103A7800874BFB6304E10023FB6300BF00E17B6825
:103A8800B3F5805F53D1834B1B6D03F4E043BB63F5
:103A9800BB6BB3F5005F1FD0B3F5005F05D8002BF3
:103AA8000AD0B3F5805F0FD03DE0B3F5405F37D063
:103AB800B3F5804F18D036E007F12403184600F01C
:103AC8009DFBBB6AFB63DBE007F11803184600F0B7
:103AD800FDF8BB69FB63D3E007F10C03184600F05F
:103AE80041FAFB68FB63CBE06A4BDB6C03F04053A5
:103AF8007B637B6B002B02D1674BFB63C0E07B6B66
:103B0800B3F1805F02D1654BFB63B9E07B6BB3F126
:103B1800005F02D15D4BFB63B2E00023FB63AFE0C3
:103B28005B4BFB63ACE00023FB6300BFA8E07B6852
:103B3800B3F5002F3DD1574B9B6D03F44033BB6366
:103B4800BB6BB3F5803F0CD0B3F5003F11D0002B11
:103B58002BD107F11803184600F0B8F8BB69FB63CE
:103B68008EE007F10C03184600F0FCF97B69FB6353
:103B780086E0484BDB6C03F040537B637B6B002B88
:103B880002D1454BFB637BE07B6BB3F1805F02D1D5
:103B9800424BFB6374E07B6BB3F1005F02D13B4B9C
:103BA800FB636DE00023FB636AE00023FB6300BF57
:103BB80066E07B68B3F5803F1FD1364BDB6C03F4BE
:103BC8008033BB63BB6B002B03D0B3F5803F08D0B9
:103BD8000FE007F12403184600F010FBBB6AFB63F3
:103BE8004EE007F11803184600F070F83B6AFB63D3
:103BF80046E00023FB6300BF42E07B68B3F5804FDB
:103C08003CD1244B9B6D03F0E043BB63BB6BB3F12A
:103C1800005F1ED0B3F1005F05D8002B0DD0B3F1C3
:103C2800805F0ED026E0B3F1804F1DD0B3F1A04FD6
:103C38001DD0B3F1405F14D01CE000F031F8F863F8
:103C48001EE007F11803184600F040F8FB69FB6313
:103C580016E007F10C03184600F084F93B69FB6392
:103C68000EE00D4BFB630BE00C4BFB6308E0074BCE
:103C7800FB6305E00023FB6300BF01E00023FB6357
:103C8800FB6B18464037BD4680BD00BF40787D01BC
:103C98000080BB00004402580090D00300093D009A
:103CA80080B500AFFEF73AFE0146064B1B6A1B09BA
:103CB80003F00703044AD35C03F01F0321FA03F35C
:103CC800184680BD0044025884CA000880B489B0F0
:103CD80000AF78609D4B9B6A03F00303BB619B4B6D
:103CE8009B6A1B0B03F03F037B61984BDB6A1B0944
:103CF80003F001033B61954BDB6BDB08C3F30C035B
:103D08003A6902FB03F307EE903AF8EE677AC7EDDB
:103D1800037A7B69002B00F00A81BB69012B5AD01A
:103D2800012B02D3022B78D099E0884B1B6803F053
:103D38002003002B2DD0854B1B68DB0803F0030301
:103D4800834A22FA03F3BB60BB6807EE903AF8EEA9
:103D5800676A7B6907EE903AF8EE677A86EEA77A8B
:103D68007A4B9B6BC3F3080307EE903AF8EE676A49
:103D780097ED036ADFED775AC6EE257A76EEA77AD5
:103D8800F7EE006A77EEA67A67EE277AC7ED077A2C
:103D980087E07B6907EE903AF8EE677ADFED6E6AA6
:103DA80086EEA77A694B9B6BC3F3080307EE903A3C
:103DB800F8EE676A97ED036ADFED665AC6EE257A74
:103DC80076EEA77AF7EE006A77EEA67A67EE277A9C
:103DD800C7ED077A65E07B6907EE903AF8EE677AF7
:103DE800DFED5E6A86EEA77A584B9B6BC3F3080338
:103DF80007EE903AF8EE676A97ED036ADFED555AD9
:103E0800C6EE257A76EEA77AF7EE006A77EEA67AFE
:103E180067EE277AC7ED077A43E07B6907EE903AA9
:103E2800F8EE677ADFED4E6A86EEA77A474B9B6B12
:103E3800C3F3080307EE903AF8EE676A97ED036A52
:103E4800DFED445AC6EE257A76EEA77AF7EE006AD9
:103E580077EEA67A67EE277AC7ED077A21E07B69C5
:103E680007EE903AF8EE677ADFED3C6A86EEA77ABD
:103E7800364B9B6BC3F3080307EE903AF8EE676A7C
:103E880097ED036ADFED335AC6EE257A76EEA77A08
:103E9800F7EE006A77EEA67A67EE277AC7ED077A1B
:103EA80000BF2A4B9B6B5B0A03F07F0307EE903A37
:103EB800F8EE677AB7EE007A37EE877AD7ED076AB9
:103EC800C6EE877AFCEEE77A17EE902A7B681A60CE
:103ED8001E4B9B6B1B0C03F07F0307EE903AF8EE2A
:103EE800677AB7EE007A37EE877AD7ED076AC6EEBB
:103EF800877AFCEEE77A17EE902A7B685A60134BB4
:103F08009B6B1B0E03F07F0307EE903AF8EE677A7F
:103F1800B7EE007A37EE877AD7ED076AC6EE877A6A
:103F2800FCEEE77A17EE902A7B689A6008E07B68D7
:103F380000221A607B6800225A607B6800229A601F
:103F480000BF2437BD465DF8047B70470044025823
:103F58000090D003000000460024744C0024744AEA
:103F680020BCBE4B80B489B000AF78609D4B9B6A83
:103F780003F00303BB619B4B9B6A1B0D03F03F03DC
:103F88007B61984BDB6A1B0A03F001033B61954B8D
:103F98005B6CDB08C3F30C033A6902FB03F307EE1F
:103FA800903AF8EE677AC7ED037A7B69002B00F048
:103FB8000A81BB69012B5AD0012B02D3022B78D07E
:103FC80099E0884B1B6803F02003002B2DD0854B0C
:103FD8001B68DB0803F00303834A22FA03F3BB6080
:103FE800BB6807EE903AF8EE676A7B6907EE903A8D
:103FF800F8EE677A86EEA77A7A4B1B6CC3F3080350
:1040080007EE903AF8EE676A97ED036ADFED775AA4
:10401800C6EE257A76EEA77AF7EE006A77EEA67AEC
:1040280067EE277AC7ED077A87E07B6907EE903A53
:10403800F8EE677ADFED6E6A86EEA77A694B1B6C3D
:10404800C3F3080307EE903AF8EE676A97ED036A40
:10405800DFED665AC6EE257A76EEA77AF7EE006AA5
:1040680077EEA67A67EE277AC7ED077A65E07B696F
:1040780007EE903AF8EE677ADFED5E6A86EEA77A89
:10408800584B1B6CC3F3080307EE903AF8EE676AC7
:1040980097ED036ADFED555AC6EE257A76EEA77AD4
:1040A800F7EE006A77EEA67A67EE277AC7ED077A09
:1040B80043E07B6907EE903AF8EE677ADFED4E6AE7
:1040C80086EEA77A474B1B6CC3F3080307EE903ABA
:1040D800F8EE676A97ED036ADFED445AC6EE257A73
:1040E80076EEA77AF7EE006A77EEA67A67EE277A79
:1040F800C7ED077A21E07B6907EE903AF8EE677A18
:10410800DFED3C6A86EEA77A364B1B6CC3F30803D7
:1041180007EE903AF8EE676A97ED036ADFED335AD7
:10412800C6EE257A76EEA77AF7EE006A77EEA67ADB
:1041380067EE277AC7ED077A00BF2A4B1B6C5B0A2C
:1041480003F07F0307EE903AF8EE677AB7EE007A4D
:1041580037EE877AD7ED076AC6EE877AFCEEE77AFC
:1041680017EE902A7B681A601E4B1B6C1B0C03F021
:104178007F0307EE903AF8EE677AB7EE007A37EEEB
:10418800877AD7ED076AC6EE877AFCEEE77A17EEEC
:10419800902A7B685A60134B1B6C1B0E03F07F033D
:1041A80007EE903AF8EE677AB7EE007A37EE877A3C
:1041B800D7ED076AC6EE877AFCEEE77A17EE902A03
:1041C8007B689A6008E07B6800221A607B6800229E
:1041D8005A607B6800229A6000BF2437BD465DF8AC
:1041E800047B7047004402580090D003000000464A
:1041F8000024744C0024744A20BCBE4B80B489B09F
:1042080000AF78609D4B9B6A03F00303BB619B4B37
:104218009B6A1B0903F03F037B61984BDB6A03F041
:1042280001033B61954B5B6BDB08C3F30C033A69F5
:1042380002FB03F307EE903AF8EE677AC7ED037ACC
:104248007B69002B00F00A81BB69012B5AD0012B36
:1042580002D3022B78D099E0884B1B6803F0200327
:10426800002B2DD0854B1B68DB0803F00303844A21
:1042780022FA03F3BB60BB6807EE903AF8EE676A70
:104288007B6907EE903AF8EE677A86EEA77A7B4B61
:104298001B6BC3F3080307EE903AF8EE676A97EDD5
:1042A800036ADFED785AC6EE257A76EEA77AF7EE3E
:1042B800006A77EEA67A67EE277AC7ED077A87E075
:1042C8007B6907EE903AF8EE677ADFED6F6A86EE63
:1042D800A77A6A4B1B6BC3F3080307EE903AF8EE14
:1042E800676A97ED036ADFED675AC6EE257A76EEC0
:1042F800A77AF7EE006A77EEA67A67EE277AC7ED17
:10430800077A65E07B6907EE903AF8EE677ADFEDA9
:104318005F6A86EEA77A594B1B6BC3F3080307EE57
:10432800903AF8EE676A97ED036ADFED565AC6EEE3
:10433800257A76EEA77AF7EE006A77EEA67A67EE28
:10434800277AC7ED077A43E07B6907EE903AF8EEE3
:10435800677ADFED4F6A86EEA77A484B1B6BC3F38B
:10436800080307EE903AF8EE676A97ED036ADFED07
:10437800455AC6EE257A76EEA77AF7EE006A77EE0A
:10438800A67A67EE277AC7ED077A21E07B6907EE00
:10439800903AF8EE677ADFED3D6A86EEA77A374BFA
:1043A8001B6BC3F3080307EE903AF8EE676A97EDC4
:1043B800036ADFED345AC6EE257A76EEA77AF7EE71
:1043C800006A77EEA67A67EE277AC7ED077A00BF0C
:1043D8002A4B1B6B5B0A03F07F0307EE903AF8EE5B
:1043E800677AB7EE007A37EE877AD7ED076AC6EEB6
:1043F800877AFCEEE77A17EE902A7B681A601F4BE3
:104408001B6B1B0C03F07F0307EE903AF8EE677AFC
:10441800B7EE007A37EE877AD7ED076AC6EE877A65
:10442800FCEEE77A17EE902A7B685A60134B1B6BF9
:104438001B0E03F07F0307EE903AF8EE677AB7EEAB
:10444800007A37EE877AD7ED076AC6EE877AFCEEF0
:10445800E77A17EE902A7B689A6008E07B6800226A
:104468001A607B6800225A607B6800229A6000BF4D
:104478002437BD465DF8047B704700BF00440258EE
:104488000090D003000000460024744C0024744AB5
:1044980020BCBE4B80B584B000AF78603960002383
:1044A800FB73534B9B6A03F00303032B01D10123D6
:1044B80099E04F4B1B684E4A23F080631360FCF76A
:1044C8003DFEB86008E0FCF739FE0246BB68D31A27
:1044D800022B01D9032386E0454B1B6803F00063D8
:1044E800002BF0D1424B9B6A23F47C327B681B681B
:1044F8001B033F4913438B627B685B68013BC3F333
:1045080008027B689B68013B5B029BB21A437B688D
:10451800DB68013B1B0403F4FE031A437B681B6939
:10452800013B1B0603F0FE43314913438B63304BB9
:10453800DB6A23F0C0027B685B692D491343CB62B9
:104548002B4BDB6A23F020027B689B6928491343C5
:10455800CB62274BDB6A264A23F01003D362244B35
:10456800DA6B244B13407A68D269D200204913438E
:10457800CB631F4BDB6A1E4A43F01003D3623B68D0
:10458800002B06D11A4BDB6A194A43F40023D36285
:104598000FE03B68012B06D1154BDB6A144A43F444
:1045A8008013D36205E0124BDB6A114A43F400130F
:1045B800D3620F4B1B680E4A43F080631360FCF70D
:1045C800BDFDB86008E0FCF7B9FD0246BB68D31A28
:1045D800022B01D9032306E0054B1B6803F0006397
:1045E800002BF0D0FB7B18461037BD4680BD00BFBE
:1045F800004402580700FFFF80B584B000AF786020
:1046080039600023FB73534B9B6A03F00303032BAE
:1046180001D1012399E04F4B1B684E4A23F0805388
:104628001360FCF78BFDB86008E0FCF787FD0246D5
:10463800BB68D31A022B01D9032386E0454B1B68BC
:1046480003F00053002BF0D1424B9B6A23F07C729D
:104658007B681B681B053F4913438B627B685B685B
:10466800013BC3F308027B689B68013B5B029BB27A
:104678001A437B68DB68013B1B0403F4FE031A43FF
:104688007B681B69013B1B0603F0FE43314913435A
:104698000B64304BDB6A23F440627B685B692D490D
:1046A8001343CB622B4BDB6A23F400727B689B6954
:1046B80028491343CB62274BDB6A264A23F48073CD
:1046C800D362244B5A6C244B13407A68D269D200C7
:1046D800204913434B641F4BDB6A1E4A43F4807323
:1046E800D3623B68002B06D11A4BDB6A194A43F4A4
:1046F8008003D3620FE03B68012B06D1154BDB6AC0
:10470800144A43F40003D36205E0124BDB6A114AF2
:1047180043F08073D3620F4B1B680E4A43F08053FB
:104728001360FCF70BFDB86008E0FCF707FD0246D4
:10473800BB68D31A022B01D9032306E0054B1B687B
:1047480003F00053002BF0D0FB7B18461037BD4612
:1047580080BD00BF004402580700FFFF80B58AB043
:1047680000AF78607B68002B01D101237CE07B6877
:1047780093F83430DBB2002B0CD17B6800221A7717
:104788007B689B69002B02D17B6802229A6178685A
:10479800FCF72EFB7B68032283F83420786800F04E
:1047A80067F80346002B01D001235DE007F10803F9
:1047B8001946786800F0B6FD0346002B01D00123A6
:1047C80052E03B7EDBB27B627B7EDBB23B627B6886
:1047D800DB6B012B0AD17B6A002B02D13B6A002BD1
:1047E80004D07B684FF40072DA650BE07B68DB6B02
:1047F800012B04D17B684FF48072DA6502E07B6894
:104808000022DA657B68DB681946786800F06CFE80
:104818000346002B01D0012326E0FCF78FFCF8614A
:1048280011E0FCF78BFC0246FB69D31AB3F1FF3F9A
:1048380009D17B684FF000429A637B68012283F8B4
:104848003420032310E0786800F0F8FE0346042BB8
:10485800E7D17B6800229A637B6800221A637B6831
:10486800012283F83420002318462837BD4680BD2E
:10487800B0B58EB004AF78600023BB600023FB6046
:1048880000233B6100237B614FF48030FEF790FFEB
:1048980078627B6A1B0A404AA2FB03231B09BB619F
:1048A8007B689B69022B07D17B681B681A687B6849
:1048B8001B6842F010021A607B681D686C4607F19D
:1048C800140393E8070084E8070007F108030ECBF8
:1048D800284602F037FC7B681B68184602F07AFC11
:1048E800BB695B007A6AB2FBF3F37B627B6A002BDD
:1048F80008D02A4A7B6AB2FBF3F301331846FCF767
:1049080029FC02E00220FCF725FC786800F074FF1F
:1049180038623B6A002B0BD07B68012283F8342075
:104928007B689A6B3B6A1A437B689A6301232EE083
:10493800786800F0A3FE38623B6A002B0BD07B68D6
:10494800012283F834207B689A6B3B6A1A437B68A0
:104958009A6301231BE07B681B684FF400711846BB
:1049680002F0CEFC38623B6A002B0FD07B681B68D4
:104978000B4A9A637B689A6B3B6A1A437B689A6313
:104988007B68012283F83420012300E000231846C5
:104998002837BD46B0BD00BF598B4F01102101001B
:1049A800FF0FE01F80B58CB000AFF860B9607A6087
:1049B8003B607B68BB62BB68002B07D1FB689B6BC5
:1049C80043F00062FB689A6301238DE0FB6893F86B
:1049D8003430DBB2012B40F08680FB6800229A63FA
:1049E800BA6A3B681A44FB685B6D9A4207D9FB6850
:1049F8009B6B43F00072FB689A63012374E0FB68C9
:104A0800032283F83420FB681B680022DA62FB6803
:104A1800BA689A623B685A02FB68DA62FB68DB6B29
:104A2800012B02D0BB6A5B02BB624FF0FF333B61D4
:104A38003B685B027B619023BB610223FB6100231F
:104A48003B6200237B62FB681B6807F1100211467A
:104A5800184602F029FCFB681B68DA68FB681B68CB
:104A680042F04002DA60FB681B68BA689A65FB6826
:104A78001B6801221A653B68012B0AD9FB68822250
:104A88001A63FB681B68B96A184602F07FFCF86273
:104A980009E0FB6881221A63FB681B68B96A18463B
:104AA80002F051FCF862FB6A002B12D0FB681B680D
:104AB8000F4A9A63FB689A6BFB6A1A43FB689A630E
:104AC800FB68012283F83420FB6800221A63012363
:104AD8000AE0FB681B68DA6BFB681B6842F4957296
:104AE800DA63002300E0022318463037BD4680BD54
:104AF800FF0FE01F80B58CB000AFF860B9607A6036
:104B08003B607B68BB62BB68002B07D1FB689B6B73
:104B180043F00062FB689A6301238DE0FB6893F819
:104B28003430DBB2012B40F08680FB6800229A63A8
:104B3800BA6A3B681A44FB685B6D9A4207D9FB68FE
:104B48009B6B43F00072FB689A63012374E0FB6877
:104B5800032283F83420FB681B680022DA62FB68B2
:104B6800BA681A623B685A02FB685A62FB68DB6BD8
:104B7800012B02D0BB6A5B02BB624FF0FF333B6183
:104B88003B685B027B619023BB610023FB610023D0
:104B98003B6200237B62FB681B6807F11002114629
:104BA800184602F081FBFB681B68DA68FB681B6823
:104BB80042F04002DA60FB681B68BA689A65FB68D5
:104BC8001B6801221A653B68012B0AD9FB68A022E1
:104BD8001A63FB681B68B96A184602F01DFCF86284
:104BE80009E0FB6890221A63FB681B68B96A1846DB
:104BF80002F0EFFBF862FB6A002B12D0FB681B681F
:104C08000F4A9A63FB689A6BFB6A1A43FB689A63BC
:104C1800FB68012283F83420FB6800221A63012311
:104C28000AE0FB681B68DA6BFB681B6842F48D724C
:104C3800DA63002300E0022318463037BD4680BD02
:104C4800FF0FE01F80B584B000AF78607B681B6BF6
:104C5800FB607B681B685B6B03F40043002B08D088
:104C6800FB6803F00803002B03D0786801F02AF9E9
:104C78009AE17B681B685B6B03F48073002B00F080
:104C8800AC807B681B684FF480729A637B681B68F2
:104C9800D96B7B681A689D4B0B40D3637B681B6894
:104CA800DA6B7B681B6822F08052DA637B681B68CA
:104CB800DA687B681B6822F04002DA60FB6803F060
:104CC8000803002B38D0FB6803F00203002B04D143
:104CD800FB6803F02003002B11D07B681B68184683
:104CE80002F0BEFBB860BB68002B08D07B689A6BEB
:104CF800BB681A437B689A63786800F059F97B6847
:104D08001B68834A9A637B68012283F834207B6896
:104D180000221A63FB6803F00103002B04D1FB682F
:104D280003F00203002B03D0786803F093F83BE10B
:104D3800786803F085F837E1FB6803F08003002BFF
:104D480000F032817B681B6800229A627B681B68CE
:104D58000022DA627B681B6800221A65FB6803F090
:104D68000203002B04D1FB6803F02003002B11D0B1
:104D78007B681B68184602F073FBB860BB68002BA1
:104D880008D07B689A6BBB681A437B689A6378681B
:104D980000F00EF97B68012283F834207B6800223A
:104DA8001A63FB6803F01003002B04D1FB6803F0BF
:104DB8002003002B02D0786803F042F8FB6803F068
:104DC8000103002B05D1FB6803F00203002B00F060
:104DD800EB80786803F03EF8E6E07B681B685B6B65
:104DE80003F48043002B08D0FB6803F00803002B72
:104DF80003D0786801F0ACF8D6E07B681B685B6B81
:104E080003F03A03002B00F0A2807B681B685B6B01
:104E180003F00203002B05D07B689B6B43F0020272
:104E28007B689A637B681B685B6B03F00803002B45
:104E380005D07B689B6B43F008027B689A637B68AC
:104E48001B685B6B03F02003002B05D07B689B6B12
:104E580043F020027B689A637B681B685B6B03F0F6
:104E68001003002B05D07B689B6B43F010027B6816
:104E78009A637B681B68264A9A637B681B68DA6BAF
:104E88007B681B6822F49D72DA637B681B68DA68AA
:104E98007B681B6822F04002DA607B681B68DA6A6C
:104EA8007B681B6842F40052DA627B681B68DA6828
:104EB8007B681B6842F08002DA607B681B681846D2
:104EC80002F0CEFA02467B689B6B1A437B689A63B2
:104ED8007B681B68DA687B681B6822F08002DA60EE
:104EE8007B681B684FF400629A63FB6803F0080351
:104EF800002B0FD07B68012283F834207B680022C6
:104F08001A63786800F054F84EE000BFC53EFFFF12
:104F18003A0F0018FB6803F08003002B44D07B682D
:104F28009B6B002B40D07B681B68DA6B7B681B6827
:104F380022F08052DA637B681B6800221A657B685E
:104F4800012283F83420786800F032F82CE07B687E
:104F58001B685B6B03F08053002B25D07B681B68B4
:104F68004FF080529A637B681B681B6D03F0040343
:104F7800002B0CD1FB6803F02003002B03D07868CA
:104F880001F04EF810E0786801F036F80CE0FB68A4
:104F980003F02003002B03D0786801F037F803E012
:104FA800786801F01FF8FFE700BF1037BD4680BDE5
:104FB80080B483B000AF786000BF0C37BD465DF8A1
:104FC800047B704780B483B000AF0346FB7100BF19
:104FD8000C37BD465DF8047B7047000080B483B091
:104FE80000AF786039607B681B6E9B0FDAB23B6854
:104FF8001A707B681B6E9B0EDBB203F00F03DAB2EC
:105008003B685A707B681B6E1B0EDBB203F0030310
:10501800DAB23B689A707B681B6E1B0CDAB23B688D
:10502800DA707B681B6E1B0ADAB23B681A717B6800
:105038001B6EDAB23B685A717B685B6E1B0D9AB2C5
:105048003B68DA807B685B6E1B0CDBB203F00F03F6
:10505800DAB23B681A727B685B6EDB0BDBB203F07B
:105068000103DAB23B685A727B685B6E9B0BDBB25A
:1050780003F00103DAB23B689A727B685B6E5B0BE4
:10508800DBB203F00103DAB23B68DA727B685B6E6D
:105098001B0BDBB203F00103DAB23B681A733B68FF
:1050A80000225A737B68DB6B002B63D17B685B6ED5
:1050B8009A0040F6FC7313407A68926E920F1A4376
:1050C8003B681A617B689B6EDB0EDBB203F007035B
:1050D800DAB23B681A757B689B6E1B0EDBB203F075
:1050E8000703DAB23B685A757B689B6E5B0DDBB2CF
:1050F80003F00703DAB23B689A757B689B6E9B0CDA
:10510800DBB203F00703DAB23B68DA757B689B6EA3
:10511800DB0BDBB203F00703DAB23B681A763B68B5
:105128001B695A1C7B68DA643B681B7EDBB203F0A0
:1051380007030233012202FA03F37A68D26C02FBF6
:1051480003F27B68DA643B681B7ADBB203F00F0377
:1051580001229A407B681A657B68DB6C7A68126D5D
:10516800520A02FB03F27B685A657B684FF40072AF
:105178009A6531E07B68DB6B012B1DD17B685B6E28
:105188001B0403F47C127B689B6E1B0C1A433B6860
:105198001A613B681B6901339A027B68DA647B6891
:1051A800DA6C7B685A657B684FF400721A657B6815
:1051B8001A6D7B689A650FE07B681B68584A9A638A
:1051C8007B689B6B43F080527B689A637B68012203
:1051D80083F8342001239DE07B689B6E9B0BDBB238
:1051E80003F00103DAB23B685A767B689B6EDB09F1
:1051F800DBB203F07F03DAB23B689A767B689B6E7A
:10520800DBB203F07F03DAB23B68DA767B68DB6EE9
:10521800DB0FDAB23B681A777B68DB6E5B0FDBB2B9
:1052280003F00303DAB23B685A777B68DB6E9B0EA8
:10523800DBB203F00703DAB23B689A777B68DB6E70
:105248009B0DDBB203F00F03DAB23B68DA777B68B9
:10525800DB6E5B0DDBB203F00103DAB23B6883F867
:1052680020203B68002283F821207B68DB6E1B0C22
:10527800DBB203F00103DAB23B6883F822207B68D3
:10528800DB6EDB0BDBB203F00103DAB23B6883F8B9
:1052980023207B68DB6E9B0BDBB203F00103DAB2E1
:1052A8003B6883F824207B68DB6E5B0BDBB203F082
:1052B8000103DAB23B6883F825207B68DB6E1B0BA1
:1052C800DBB203F00103DAB23B6883F826207B687F
:1052D800DB6E9B0ADBB203F00303DAB23B6883F8A8
:1052E80027207B68DB6E1B0ADBB203F00303DAB20C
:1052F8003B6883F828207B68DB6E5B08DBB203F031
:105308007F03DAB23B6883F829203B68012283F8DF
:105318002A20002318460C37BD465DF8047B7047E9
:10532800FF0FE01F80B594B000AF786039600023AC
:1053380087F84F3007F108031946786800F064FBD6
:10534800B864BB6C002B11D07B681B684F4A9A630A
:105358007B689A6BBB6C1A437B689A637B680122F3
:1053680083F83420012387F84F3070E0BB689B092D
:10537800DBB203F00303DAB23B681A70BB685B095F
:10538800DBB203F00103DAB23B685A70BB681B0A50
:105398009BB223F0FF039AB2BB681B0E9BB2134368
:1053A8009AB23B685A80FB681A06FB681B0203F432
:1053B8007F031A43FB681B0A03F47F431A43FB6805
:1053C8001B0E1A433B685A603B69DAB23B681A7293
:1053D8003B691B0ADAB23B685A723B691B0DDBB2A8
:1053E80003F00F03DAB23B689A723B691B0C9BB25D
:1053F80023F0FF039AB27B699BB2DBB29BB21343E3
:105408009AB23B689A817B699B0ADBB203F03F033F
:10541800DAB23B689A737B691B0ADBB203F00303B9
:10542800DAB23B68DA737B691B09DBB203F00F035E
:10543800DAB23B681A747B69DBB203F00F03DAB2A5
:105448003B685A74BB691B0EDAB23B689A747B6876
:105458001B684FF40071184601F052FFB864BB6C2A
:10546800002B0DD07B681B68084A9A637B68BA6C6E
:105478009A637B68012283F83420012387F84F3030
:1054880097F84F3018465037BD4680BDFF0FE01FD4
:1054980080B483B000AF786039607B68DA6B3B68B2
:1054A8001A607B681A6C3B685A607B685A6C3B6868
:1054B8009A607B689A6C3B68DA607B68DA6C3B6858
:1054C8001A617B681A6D3B685A617B685A6D3B6844
:1054D8009A617B689A6D3B68DA61002318460C373D
:1054E800BD465DF8047B7047B0B58EB004AF7860F8
:1054F8003960002387F827307B68032283F834203B
:105508007B68DB6B032B2ED03B68B3F5004F06D1CD
:105518007B689B6B43F080527B689A6329E03B6809
:10552800B3F5804F0AD1786800F066FB38627B6873
:105538009A6B3B6A1A437B689A631AE03B68002BB4
:105548000AD1786800F0A3FB38627B689A6B3B6AE3
:105558001A437B689A630CE07B689B6B43F000629C
:105568007B689A6305E07B689B6B43F080527B689D
:105578009A637B689B6B002B07D07B681B682E4A5D
:105588009A63012387F8273034E07B685B68BB6047
:105598007B689B68FB603B683B617B681B697B6140
:1055A8007B685B69032B03D97B685B69BB6112E08D
:1055B8007B68DB6DB3F5007F03D17B685B69BB61FA
:1055C80009E07B68DB6DB3F5807F02D10223BB6104
:1055D80001E00423BB617B681D686C4607F1140376
:1055E80093E8070084E8070007F108030ECB284674
:1055F80001F0A8FD7B681B684FF40071184601F0A4
:105608007FFE38623B6A002B0CD07B681B680A4A15
:105618009A637B689A6B3B6A1A437B689A63012397
:1056280087F827307B68012283F8342097F82730E1
:1056380018462837BD46B0BDFF0FE01F80B586B0BD
:1056480000AF78600023FB6007F10C031946786807
:1056580000F0AAFA78617B69002B05D07B689A6B09
:105668007B691A437B689A63FB685B0A03F00F0344
:105678003B613B6918461837BD4680BD90B591B06F
:1056880000AF78600123FB817B681B68184601F036
:10569800B2FD0346002B02D14FF08063A8E07B687F
:1056A800DB6B032B2ED07B681B68184601F0FEFFCE
:1056B800F863FB6B002B01D0FB6B99E07B681B68E0
:1056C8000021184601F0DDFD02467B681A677B68F9
:1056D8001B680421184601F0D4FD02467B685A670E
:1056E8007B681B680821184601F0CBFD02467B68E1
:1056F8009A677B681B680C21184601F0C2FD0246B8
:105708007B68DA677B68DB6B032B0DD07B681B68D3
:1057180007F10E021146184602F007F8F863FB6B12
:10572800002B01D0FB6B63E07B68DB6B032B36D06F
:10573800FB891A467B689A647B681A687B689B6C4D
:105748001B041946104601F0D0FFF863FB6B002BD1
:1057580001D0FB6B4CE07B681B680021184601F008
:1057680090FD02467B681A667B681B680421184610
:1057780001F087FD02467B685A667B681B68082132
:10578800184601F07EFD02467B689A667B681B68B6
:105798000C21184601F075FD02467B68DA667B68C5
:1057A8001B680421184601F06CFD03461A0D7B683E
:1057B8005A6407F1100319467868FFF70FFC03468F
:1057C800002B02D04FF0805312E07B6819687B6889
:1057D8009B6C1B044FF000041A462346084601F050
:1057E8007BFEF863FB6B002B01D0FB6B00E0002312
:1057F80018464437BD4690BD80B588B000AF786084
:105808000023FB600023FB610023BB61FBF796FCD0
:1058180078617B681B68184601F082FE38613B6935
:10582800002B01D03B69E9E07B681B68184601F052
:1058380095FE38613B69002B0DD07B6800221A6405
:105848007B681B68184601F06BFE38613B69002BCA
:1058580004D03B69D2E07B6801221A647B681B6C28
:10586800012B37D17B681B680021184601F096FE92
:1058780038613B69002B2DD04FF08053BEE07B6828
:105888001B680021184601F089FE38613B69002B2E
:1058980001D03B69B2E07B681B685A49184601F0A1
:1058A800A0FE38613B69002B02D04FF08053A5E081
:1058B8007B681B680021184601F0E3FCF861FB696E
:1058C800DB0F012B01D1012300E00023BB61FB6842
:1058D8000133FB60FB684FF6FE72934202D8BB6946
:1058E800002BCCD0FB684FF6FE72934202D94FF0E2
:1058F800807383E0FB6903F08043002B7DD07B68D5
:105908000122DA637B689B69022B76D1FB6903F07D
:105918008073002B71D07B684FF40072DA657B6866
:105928001B681A687B681B6842F008021A607B686B
:105938001B68184601F060FF38613B69002B0CD0EA
:105948003B695BE0FBF7FAFB02467B69D31AB3F1CC
:10595800FF3F02D14FF0004350E07B681B685B6B50
:1059680003F08063B3F1806FECD17B681B684FF064
:1059780080629A637B681B685B6B03F48013B3F5E2
:10598800801F02D04FF0805338E00120FFF71AFB48
:105998007B681B681A687B681B6842F004021A60FF
:1059A8000AE0FBF7CBFB02467B69D31AB3F1FF3F52
:1059B80002D14FF0004321E07B681B685B6B03F06A
:1059C8000073B3F1007FECD17B681B684FF0007265
:1059D8009A637B681B685B6B03F48013B3F5801FC5
:1059E80002D14FF0807309E07B681B6813221A60AC
:1059F8007B681B684FF0FF329A63002318462037F4
:105A0800BD4680BD000010C180B58CB000AF786085
:105A18003960FBF793FB78623B68BB627B681B6865
:105A28000021184601F02DFC034603F00073B3F182
:105A3800007F02D14FF40063B0E07B681B6840210F
:105A4800184601F05DFC38623B6A002B05D07B6884
:105A58009A6B7B689A633B6AA0E07B681A687B68EC
:105A68009B6C1B041946104601F098FD38623B6A8E
:105A7800002B05D07B689A6B7B689A633B6A8DE044
:105A88004FF0FF33BB604023FB6060233B61022380
:105A98007B610023BB610123FB617B681B6807F105
:105AA80008021146184601F0FFFB7B681B68184680
:105AB80001F080FE38623B6A002B2BD07B689A6B22
:105AC8007B689A633B6A69E07B681B685B6B03F4DD
